:1008000075A038C2B6D2B7E4FFFE0FBF00010EBE1E
:1008100013F8BF88F5C2B775A00CC2B6D2B7E4FE14
:10082000FF0FBF00010EBE13F8BF88F5C2B775A059
:1008300006C2B6D2B7E4FEFF0FBF00010EBE13F82A
:10084000BF88F5C2B775A001C2B6D2B7E4FEFF0FEC
:10085000BF00010EBE13F8BF88F5C2B775A04ED217
:10086000B6D2B7E4FEFF0FBF00010EBE13F8BF887B
:10087000F5C2B775A041D2B6D2B7E4FEFF0FBF00F4
:10088000010EBE13F8BF88F5C2B775A04DD2B6D21F
:10089000B7E4FEFF0FBF00010EBE13F8BF88F5C21C
:1008A000B775A041D2B6D2B7E4FEFF0FBF00010E6C
:1008B000BE13F8BF88F5C2B775A053D2B6D2B7E45D
:1008C000FEFF0FBF00010EBE13F8BF88F5C2B7755B
:1008D000A054D2B6D2B7E4FEFF0FBF00010EBE1384
:1008E000F8BF88F5C2B775A048D2B6D2B7E4FEFF0C
:1008F0000FBF00010EBE13F8BF88F5C2B775A04543
:10090000D2B6D2B7E4FEFF0FBF00010EBE13F8BF90
:1009100088F5C2B775A0C0C2B6D2B7E4FEFF0FBF5C
:1009200000010EBE13F8BF88F5C2B775A042D2B65B
:10093000D2B7E4FEFF0FBF00010EBE13F8BF88F56B
:10094000C2B775A048D2B6D2B7E4FEFF0FBF000110
:100950000EBE13F8BF88F5C2B775A041D2B6D2B7A4
:10096000E4FEFF0FBF00010EBE13F8BF88F5C2B74B
:1009700075A049D2B6D2B7E4FEFF0FBF00010EBE8C
:0709800013F8BF88F5C2B7B0
:01098700224D
:030000000209886A
:0C098800787FE4F6D8FD758107020800B6
:00000001FF
