:100800007F381208577F0C1208577F061208577F4F
:10081000011208577F801208577F4E12086E7F41E1
:1008200012086E7F4D12086E7F5312086E7F5412AD
:10083000086E7F4812086E7F4512086E7FC012084E
:10084000577F4212086E7F4812086E7F4112086E71
:070850007F4912086E80FED3
:100857008FA0C2B6D2B7E4FFFEC2B70FBF00010E2A
:06086700BE13F6BF88F38A
:01086D002268
:10086E008FA0D2B6D2B7E4FFFEC2B70FBF00010E03
:06087E00BE13F6BF88F373
:010884002251
:030000000208856E
:0C088500787FE4F6D8FD758107020800BA
:00000001FF
