:1008550049676E69746520656D62656464656400E9
:09086500416D6565727065740057
:100800007F381208877F0C1208877F061208877FBF
:10081000011208877F801208877BFF7A08795512BA
:1008200008327FC01208877BFF7A08796512083288
:0208300080FE48
:100832008B088A09890AAB08AA09A90A12086EFF5D
:10084200601012089E7401250AF50AE43509F509BB
:0308520080E4221D
:100887008FA0C2B6D2B7E4FFFEC2B70FBF00010EFA
:06089700BE13F6BF88F35A
:01089D002238
:10089E008FA0D2B6D2B7E4FFFEC2B70FBF00010ED3
:0608AE00BE13F6BF88F343
:0108B4002221
:030000000208B53E
:0C08B500787FE4F6D8FD75810A02080087
:10086E00BB010689828A83E0225002E722BBFE0288
:09087E00E32289828A83E49322BB
:00000001FF
