:100824001208597FA01208001208447F061208001B
:100834001208447F6112080012084412086680FE00
:0D085900D2A1D2A0120000120000C2A02205
:100800008F08E4F509E5083392A0D2A11200001286
:100810000000C2A1E50825E0F5080509E509C39433
:030820000840E2AB
:0108230022B2
:10084400D2A0A2A09200D2A1120000120000C2A164
:0508540012086680FEA1
:0D086600D2A1C2A0120000120000D2A122F7
:0300000002087380
:0C087300787FE4F6D8FD7581200208248F
:00000001FF
