:0D09EF004B657970616454657374203A00A3
:1009DC0010084642373345413632443935314338B5
:0209EC003430A5
:10097C007F381209AE7F0C1209AE7F061209AE7FCA
:09098C00011209AE7F800209AEE0
:100959008B1C8A1D891EAB1CAA1DA91E120995FF95
:1009690060101209C57401251EF51EE4351DF51D1B
:0309790080E422F5
:1009AE008FA0C2B6D2B7E4FFFE0FBF00010EBE137A
:0609BE00F8BF88F5C2B786
:0109C4002210
:1009C5008FA0D2B6D2B7E4FFFE0FBF00010EBE1353
:0609D500F8BF88F5C2B76F
:0109DB0022F9
:10093300E4FDFCC3ED9FEE6480F8EC6480985015F1
:10094300E4FBFA0BBB00010ABA04F8BBFBF50DBDCF
:0509530000010C80DE34
:01095800227C
:1008000012097C7F801209AE7BFF7A0979EF120909
:1008100059D293D292D291D290C297C296C295C227
:10082000943090093091063092032093F420900583
:10083000E4F518F519209106751800751901209234
:1008400006751800751902209306751800751903AE
:10085000C293C292C291C290D297D296D295D294AC
:100860003094093095063096032097F4209405E4DF
:10087000F51AF51B209506751A00751B01209606C2
:10088000751A00751B02209706751A00751B037FE9
:10089000C01209AEE51925E025E02408251BF8E67D
:0708A000FF1209C502081157
:030000000208A74C
:0C08A700787FE4F6D8FD75811E0208EE93
:10099500BB010689828A83E0225002E722BBFE0260
:0909A500E32289828A83E4932293
:1008B300020800E493A3F8E493A34003F68001F253
:1008C30008DFF48029E493A3F85407240CC8C33346
:1008D300C4540F4420C8834004F456800146F6DF15
:1008E300E4800B01020408102040809009DCE47EC0
:1008F300019360BCA3FF543F30E509541FFEE4930A
:10090300A360010ECF54C025E060A840B8E493A3D0
:10091300FAE493A3F8E493A3C8C582C8CAC583CAFB
:10092300F0A3C8C582C8CAC583CADFE9DEE780BEB3
:0109EE000008
:00000001FF
