:1008000044313A4F4E0044313A4F46460044323A62
:100810004F4E0044323A4F46460044333A4F4E0062
:1008200044333A4F46460044343A4F4E0044343A3B
:040830004F464600E9
:100834007F3812089B7F0C12089B7F0612089B7F4F
:100844000112089B7F8012089BD290D291D292D23F
:0B08540093C297C296C295C29480FE2A
:10085F008B088A09890AAB08AA09A90A120882FF1C
:10086F0060101208B27401250AF50AE43509F5097A
:03087F0080E422F0
:10089B008FA0C2B6D2B7E4FFFEC2B70FBF00010EE6
:0608AB00BE13F6BF88F346
:0108B1002224
:1008B2008FA0D2B6D2B7E4FFFEC2B70FBF00010EBF
:0608C200BE13F6BF88F32F
:0108C800220D
:030000000208C92A
:0C08C900787FE4F6D8FD75810A0208343F
:10088200BB010689828A83E0225002E722BBFE0274
:09089200E32289828A83E49322A7
:00000001FF
