:1008990057454C434F4D4500454C454354524F4EE7
:1008A900494320564F54494E472E2E2E0052454754
:1008B90049535445522046494E4745525052494E94
:1008C9005400524547495354524154494F4E2053BD
:1008D90055434553530053454C45435420544F20E9
:1008E900564F544500504152545920202020204051
:1008F900202020202020202031005041525459200E
:1009090020202020232020202020202020320050B9
:10091900415254592020202020242020202020200A
:040929002020330057
:10080000E4F5A07F381209867F011209867F06125F
:1008100009867F0C1209867BFF7A08799912092DC7
:100820007F011209867BFF7A0879A112092D7F01C9
:100830001209867F801209867BFF7A0879B6120931
:100840002D7F011209867F801209867BFF7A087945
:10085000CB12092D7F011209867F801209867BFF4A
:100860007A0879DF12092D7FC01209867F0C1209E0
:10087000867BFF7A0879EE12092D7F941209867B18
:10088000FF7A09790312092D7FD41209867BFF7A3A
:0908900009791812092D02080370
:0E0978008FA0D290C291D292120969C292222F
:0E0986008FA0C290C291D292120969C2922231
:10092D008B088A09890AAB08AA09A90A120950FF7E
:10093D0060101209787401250AF50AE43509F509E4
:03094D0080E42221
:0E096900E4FFFE0FBF00010EBE27F8BF11F520
:01097700225D
:030000000209945E
:0C099400787FE4F6D8FD75810A020800A7
:10095000BB010689828A83E0225002E722BBFE02A5
:09096000E32289828A83E49322D8
:00000001FF
