:1008000075A038C2B6D2B7E4FFFE0FBF00010EBE1E
:1008100013F8BF88F5C2B775A00CC2B6D2B7E4FE14
:10082000FF0FBF00010EBE13F8BF88F5C2B775A059
:1008300006C2B6D2B7E4FEFF0FBF00010EBE13F82A
:10084000BF88F5C2B775A001C2B6D2B7E4FEFF0FEC
:10085000BF00010EBE13F8BF88F5C2B775A050D215
:10086000B6D2B7E4FEFF0FBF00010EBE13F8BF887B
:10087000F5C2B775A04FD2B6D2B7E4FEFF0FBF00E6
:10088000010EBE13F8BF88F5C2B775A054D2B6D218
:10089000B7E4FEFF0FBF00010EBE13F8BF88F5C21C
:1008A000B775A054D2B6D2B7E4FEFF0FBF00010E59
:1008B000BE13F8BF88F5C2B775A049D2B6D2B7E467
:1008C000FEFF0FBF00010EBE13F8BF88F5C2B7755B
:1008D000A020D2B6D2B7E4FEFF0FBF00010EBE13B8
:1008E000F8BF88F5C2B775A046D2B6D2B7E4FEFF0E
:1008F0000FBF00010EBE13F8BF88F5C2B775A04543
:10090000D2B6D2B7E4FEFF0FBF00010EBE13F8BF90
:1009100088F5C2B775A04CD2B6D2B7E4FEFF0FBFC0
:1009200000010EBE13F8BF88F5C2B775A04CD2B651
:10093000D2B7E4FEFF0FBF00010EBE13F8BF88F56B
:10094000C2B775A04FD2B6D2B7E4FEFF0FBF000109
:100950000EBE13F8BF88F5C2B775A057D2B6D2B78E
:10096000E4FEFF0FBF00010EBE13F8BF88F5C2B74B
:1009700075A0C0C2B6D2B7E4FEFF0FBF00010EBE25
:1009800013F8BF88F5C2B775A050D2B6D2B7E4FE4F
:10099000FF0FBF00010EBE13F8BF88F5C2B775A0E8
:1009A00041D2B6D2B7E4FEFF0FBF00010EBE13F86E
:1009B000BF88F5C2B775A04ED2B6D2B7E4FEFF0F1E
:1009C000BF00010EBE13F8BF88F5C2B775A044D2B0
:1009D000B6D2B7E4FEFF0FBF00010EBE13F8BF880A
:1009E000F5C2B775A048D2B6D2B7E4FEFF0FBF007C
:1009F000010EBE13F8BF88F5C2B775A049D2B6D2B2
:100A0000B7E4FEFF0FBF00010EBE13F8BF88F5C2AA
:100A1000B775A020D2B6D2B7E4FEFF0FBF00010E1B
:100A2000BE13F8BF88F5C2B775A046D2B6D2B7E4F8
:100A3000FEFF0FBF00010EBE13F8BF88F5C2B775E9
:100A4000A045D2B6D2B7E4FEFF0FBF00010EBE1321
:100A5000F8BF88F5C2B775A04CD2B6D2B7E4FEFF96
:100A60000FBF00010EBE13F8BF88F5C2B775A04CCA
:100A7000D2B6D2B7E4FEFF0FBF00010EBE13F8BF1F
:100A800088F5C2B775A04FD2B6D2B7E4FEFF0FBF4C
:100A900000010EBE13F8BF88F5C2B775A057D2B6D5
:100AA000D2B7E4FEFF0FBF00010EBE13F8BF88F5FA
:020AB000C2B7CB
:010AB2002221
:03000000020AB33E
:0C0AB300787FE4F6D8FD7581070208008A
:00000001FF
