:08099800636F756E74203A00D4
:1008A4007F3812095E7F0C12095E7F0612095E7F93
:1008B4000112095E7F8012095E7F647E00120915B1
:1008C4007F0112095E7BFF7A09799812093BE4F5EE
:1008D40008F5097F8812095EAE08AF097C007D0A1D
:1008E400120819EF2430FF120975AE08AF097C0015
:1008F4007D0A120819ED2430FF1209750509E5096E
:1009040070020508C39464E5086480948040C48040
:01091400FEE4
:10093B008B0A8A0B890CAB0AAA0BA90C120800FFB5
:10094B0060101209757401250CF50CE4350BF50BD1
:03095B0080E42213
:10095E008FA0C2B6D2B7E4FFFEC2B70FBF00010E22
:06096E00BE13F6BF88F382
:010974002260
:100975008FA0D2B6D2B7E4FFFEC2B70FBF00010EFB
:06098500BE13F6BF88F36B
:01098B002249
:10091500E4FDFCC3ED9FEE6480F8EC64809850150F
:10092500E4FBFA0BBB00010ABA04F8BBFBF50DBDED
:0509350000010C80DE52
:01093A00229A
:0300000002098C66
:0C098C00787FE4F6D8FD75810C0208A409
:10080000BB010689828A83E0225002E722BBFE02F6
:09081000E32289828A83E4932229
:10081900C2D5EC30E709B2D5E4C39DFDE49CFCEEFA
:1008290030E715B2D5E4C39FFFE49EFE12084FC31B
:10083900E49DFDE49CFC800312084F30D507C3E416
:060849009FFFE49EFE2269
:10084F00BC000BBE0029EF8DF084FFADF022E4CC8D
:10085F00F875F008EF2FFFEE33FEEC33FCEE9DEC56
:10086F00984005FCEE9DFE0FD5F0E9E4CEFD22ED9C
:10087F00F8F5F0EE8420D21CFEADF075F008EF2FE6
:10088F00FFED33FD4007985006D5F0F222C398FDD7
:05089F000FD5F0EA2274
:00000001FF
