:1008C6004C454420544553540044313A4F4E200081
:1008D60044313A4F46460044323A4F4E20004432A5
:1008E6003A4F46460044333A4F4E200044333A4F7F
:1008F60046460044343A4F4E200044343A4F46466A
:0109060000F0
:100950007F381209827F0C1209827F061209827F7A
:09096000011209827F8002098264
:10092D008B088A09890AAB08AA09A90A120969FF65
:10093D0060101209997401250AF50AE43509F509C3
:03094D0080E42221
:100982008FA0C2B6D2B7E4FFFE0FBF00010EBE13A6
:06099200F8BF88F5C2B7B2
:01099800223C
:100999008FA0D2B6D2B7E4FFFE0FBF00010EBE137F
:0609A900F8BF88F5C2B79B
:0109AF002225
:10090700E4FDFCC3ED9FEE6480F8EC64809850151D
:10091700E4FBFA0BBB00010ABA04F8BBFBF50DBDFB
:0509270000010C80DE60
:01092C0022A8
:10080000C203C202C201C200D293D292D291D2904C
:10081000C297C296C295C2941209507F8012098273
:100820007BFF7A0879C60208B4209002B2002091BA
:1008300002B201209202B202209302B2032000040D
:10084000C2948002D294200104C2958002D29520E5
:100850000204C2968002D296200304C2978002D27C
:10086000977F801209827BFF3000067A0879CF805B
:10087000047A0879D612092D7F881209827BFF300D
:1008800001067A0879DD80047A0879E412092D7F5F
:10089000C01209827BFF3002067A0879EB80047A65
:1008A0000879F212092D7FC812098230030C7BFFF0
:1008B0007A0879F912092D0208297BFF7A09790053
:0608C00012092D020829B7
:030000000209B042
:0C09B000787FE4F6D8FD75812002080075
:10096900BB010689828A83E0225002E722BBFE028C
:09097900E32289828A83E49322BF
:00000001FF
