:1008240012086C7F401208001208477F5512080016
:1008340012084712085C7FAA12080012084712081F
:030844005C80E8ED
:0D086C00D2A1D2A0120000120000C2A022F2
:100800008F08E4F509E5083392A0D2A11200001286
:100810000000C2A1E50825E0F5080509E509C39433
:030820000840E2AB
:0108230022B2
:10084700D2A0A2A09200D2A1120000120000C2A161
:0508570012087980FE8B
:0D087900D2A1C2A0120000120000D2A122E4
:0F085C00E4FFEFC394707480949750030F80F300
:01086B00226A
:030000000208866D
:0C088600787FE4F6D8FD7581200208247C
:00000001FF
