:100B2700454E54455220414144484152204E4F3A88
:100B3700006E796E69746100442E4F2E42203A2070
:100B470032372F31312F323030310038383838349E
:100B570034343431320046656D616C650052414D65
:100B670000442E4F2E42203A20372F31312F313972
:100B770039350038383434343431323838004D613F
:100B87006C650052616D65736800442E4F2E4220DC
:100B97003A2032302F312F32303138003838383858
:0F0BA70034343134323400496E7661696C640045
:100C42000C083231353633303135383032340C1409
:100C52003132333435363738393130310C20313096
:0A0C6200313938373635343332317A
:1009C8007F38120C907F0C120C907F06120C907FCF
:1009D8000F120C907F80120C907BFF7A0B792712F4
:1009E8000C6D7FC0120C90759850758920758DFD1F
:1009F800D28EE4F52C3098FD742E252CF8A6998516
:100A0800992D852D993099FDC299C298742E252C5F
:100A1800F8E6FF120CA9052CE52CC3940C40D678F7
:100A2800087C007D007B007A00792E1209ABEF70FC
:100A38003D7F01120C907F80120C907BFF7A0B791E
:100A480038120C6D7FC0120C907BFF7A0B793F1225
:100A58000C6D7F94120C907BFF7A0B7952120C6DFF
:100A68007FD4120C907BFF7A0B795D020B107814FF
:100A78007C007D007B007A00792E1209ABEF703C78
:100A88007F01120C907F80120C907BFF7A0B7964A7
:100A9800120C6D7FC0120C907BFF7A0B7968120CD8
:100AA8006D7F94120C907BFF7A0B797A120C6D7F14
:100AB800D4120C907BFF7A0B7985804C78207C00CF
:100AC8007D007B007A00792E1209ABEF70407F0120
:100AD800120C907F80120C907BFF7A0B798A120C93
:100AE8006D7FC0120C907BFF7A0B7991120C6D7F91
:100AF80094120C907BFF7A0B79A3120C6D7FD412A1
:100B08000C907BFF7A0B7985120C6D0209FA7F0134
:0F0B1800120C907BFF7A0B79AE120C6D0209FA6A
:060C6D008B3A8A3B893C32
:100C7300E4F53DAB3AAA3BA93C853D82758300125E
:0C0C83000800FF6007120CA9053D80E787
:010C8F002242
:100C90008FA0C292C293D294E4FFFE0FBF00010E58
:080CA000BE13F8BF88F5C294F1
:010CA8002229
:100CA9008FA0D292C293D294E4FFFE0FBF00010E2F
:080CB900BE13F8BF88F5C294D8
:010CC1002210
:03000000020BB63A
:0C0BB600787FE4F6D8FD75813D020BFD50
:10080000BB010CE58229F582E5833AF583E02250AD
:1008100006E92582F8E622BBFE06E92582F8E222F7
:0D082000E58229F582E5833AF583E4932211
:10082D00E3F5F009E208B5F06D606B80F3E3F5F0E8
:10083D0009E608B5F060605E80F387F009E608B55B
:10084D00F054605280F487F009E208B5F048604634
:10085D0080F488828C8387F009E0A3B5F038603688
:10086D0080F488828C8387F009E493A3B5F0276028
:10087D002580F388828C83E3F5F009E0A3B5F016AB
:10088D00601480F388828C83E3F5F009E493A3B5BB
:10089D00F004600280F2020958808580E7808E8026
:1008AD00D2803C8015806C807E809B80B5808B8053
:1008BD00A1804F8070803A02096489828A83ECFAA4
:1008CD00E493F5F0A3C8C582C8CCC583CCE493A34B
:1008DD00C8C582C8CCC583CCB5F070606E80E18987
:1008ED00828A83E493F5F0A3E208B5F05E605C8044
:1008FD00F289828A83E0F5F0A3E608B5F04D604BEE
:10090D0080F389828A83E0F5F0A3E208B5F03C60BC
:10091D003A80F389828A83E493F5F0A3E608B5F073
:10092D002A602880F2805389828A83ECFAE493F559
:10093D00F0A3C8C582C8CCC583CCE0A3C8C582C806
:10094D00CCC583CCB5F004600280E27FFFB5F00228
:10095D000F2240027F012289828A83ECFAE0F5F0B2
:10096D00A3C8C582C8CCC583CCE0A3C8C582C8CCFA
:10097D00C583CCB5F0D560D380E389828A83ECFA48
:10098D00E0F5F0A3C8C582C8CCC583CCE493A3C859
:10099D00C582C8CCC583CCB5F0B160AF80E288F01C
:1009AD00ED2402B4040050A3F582EB2402B404003C
:0B09BD00509923234582239008A67365
:100BC2000209C8E493A3F8E493A34003F68001F278
:100BD20008DFF48029E493A3F85407240CC8C33334
:100BE200C4540F4420C8834004F456800146F6DF03
:100BF200E4800B0102040810204080900C42E47E45
:100C0200019360BCA3FF543F30E509541FFEE493F7
:100C1200A360010ECF54C025E060A840B8E493A3BE
:100C2200FAE493A3F8E493A3C8C582C8CAC583CAE9
:100C3200F0A3C8C582C8CAC583CADFE9DEE780BEA1
:010C6C000087
:00000001FF
